{
	"contracts/starNotary.sol": {
		"StarNotary": {
			"abi": [
				{
					"anonymous": false,
					"inputs": [
						{
							"indexed": false,
							"internalType": "address",
							"name": "owner",
							"type": "address"
						}
					],
					"name": "starClaimed",
					"type": "event"
				},
				{
					"inputs": [],
					"name": "claimStar",
					"outputs": [],
					"stateMutability": "nonpayable",
					"type": "function"
				},
				{
					"inputs": [
						{
							"internalType": "string",
							"name": "name",
							"type": "string"
						}
					],
					"name": "setStarName",
					"outputs": [],
					"stateMutability": "nonpayable",
					"type": "function"
				},
				{
					"inputs": [],
					"name": "starName",
					"outputs": [
						{
							"internalType": "string",
							"name": "",
							"type": "string"
						}
					],
					"stateMutability": "view",
					"type": "function"
				},
				{
					"inputs": [],
					"name": "starOwner",
					"outputs": [
						{
							"internalType": "address",
							"name": "",
							"type": "address"
						}
					],
					"stateMutability": "view",
					"type": "function"
				}
			],
			"devdoc": {
				"kind": "dev",
				"methods": {},
				"version": 1
			},
			"evm": {
				"assembly": "    /* \"contracts/starNotary.sol\":60:467  contract StarNotary{... */\n  mstore(0x40, 0x80)\n  callvalue\n  dup1\n  iszero\n  tag_1\n  jumpi\n  0x00\n  dup1\n  revert\ntag_1:\n  pop\n  dataSize(sub_0)\n  dup1\n  dataOffset(sub_0)\n  0x00\n  codecopy\n  0x00\n  return\nstop\n\nsub_0: assembly {\n        /* \"contracts/starNotary.sol\":60:467  contract StarNotary{... */\n      mstore(0x40, 0x80)\n      callvalue\n      dup1\n      iszero\n      tag_1\n      jumpi\n      0x00\n      dup1\n      revert\n    tag_1:\n      pop\n      jumpi(tag_2, lt(calldatasize, 0x04))\n      shr(0xe0, calldataload(0x00))\n      dup1\n      0x88d5896c\n      eq\n      tag_3\n      jumpi\n      dup1\n      0x9bd78a26\n      eq\n      tag_4\n      jumpi\n      dup1\n      0xa434c272\n      eq\n      tag_5\n      jumpi\n      dup1\n      0xc5946ae0\n      eq\n      tag_6\n      jumpi\n    tag_2:\n      0x00\n      dup1\n      revert\n        /* \"contracts/starNotary.sol\":85:108  string public  starName */\n    tag_3:\n      tag_7\n      tag_8\n      jump\t// in\n    tag_7:\n      mload(0x40)\n      tag_9\n      swap2\n      swap1\n      tag_10\n      jump\t// in\n    tag_9:\n      mload(0x40)\n      dup1\n      swap2\n      sub\n      swap1\n      return\n        /* \"contracts/starNotary.sol\":385:465  function setStarName(string memory name) public {... */\n    tag_4:\n      tag_11\n      0x04\n      dup1\n      calldatasize\n      sub\n      dup2\n      add\n      swap1\n      tag_12\n      swap2\n      swap1\n      tag_13\n      jump\t// in\n    tag_12:\n      tag_14\n      jump\t// in\n    tag_11:\n      stop\n        /* \"contracts/starNotary.sol\":114:138  address public starOwner */\n    tag_5:\n      tag_15\n      tag_16\n      jump\t// in\n    tag_15:\n      mload(0x40)\n      tag_17\n      swap2\n      swap1\n      tag_18\n      jump\t// in\n    tag_17:\n      mload(0x40)\n      dup1\n      swap2\n      sub\n      swap1\n      return\n        /* \"contracts/starNotary.sol\":273:379  function claimStar() public {... */\n    tag_6:\n      tag_19\n      tag_20\n      jump\t// in\n    tag_19:\n      stop\n        /* \"contracts/starNotary.sol\":85:108  string public  starName */\n    tag_8:\n      0x00\n      dup1\n      sload\n      tag_21\n      swap1\n      tag_22\n      jump\t// in\n    tag_21:\n      dup1\n      0x1f\n      add\n      0x20\n      dup1\n      swap2\n      div\n      mul\n      0x20\n      add\n      mload(0x40)\n      swap1\n      dup2\n      add\n      0x40\n      mstore\n      dup1\n      swap3\n      swap2\n      swap1\n      dup2\n      dup2\n      mstore\n      0x20\n      add\n      dup3\n      dup1\n      sload\n      tag_23\n      swap1\n      tag_22\n      jump\t// in\n    tag_23:\n      dup1\n      iszero\n      tag_24\n      jumpi\n      dup1\n      0x1f\n      lt\n      tag_25\n      jumpi\n      0x0100\n      dup1\n      dup4\n      sload\n      div\n      mul\n      dup4\n      mstore\n      swap2\n      0x20\n      add\n      swap2\n      jump(tag_24)\n    tag_25:\n      dup3\n      add\n      swap2\n      swap1\n      0x00\n      mstore\n      keccak256(0x00, 0x20)\n      swap1\n    tag_26:\n      dup2\n      sload\n      dup2\n      mstore\n      swap1\n      0x01\n      add\n      swap1\n      0x20\n      add\n      dup1\n      dup4\n      gt\n      tag_26\n      jumpi\n      dup3\n      swap1\n      sub\n      0x1f\n      and\n      dup3\n      add\n      swap2\n    tag_24:\n      pop\n      pop\n      pop\n      pop\n      pop\n      dup2\n      jump\t// out\n        /* \"contracts/starNotary.sol\":385:465  function setStarName(string memory name) public {... */\n    tag_14:\n        /* \"contracts/starNotary.sol\":454:458  name */\n      dup1\n        /* \"contracts/starNotary.sol\":443:451  starName */\n      0x00\n        /* \"contracts/starNotary.sol\":443:458  starName = name */\n      swap1\n      dup2\n      tag_28\n      swap2\n      swap1\n      tag_29\n      jump\t// in\n    tag_28:\n      pop\n        /* \"contracts/starNotary.sol\":385:465  function setStarName(string memory name) public {... */\n      pop\n      jump\t// out\n        /* \"contracts/starNotary.sol\":114:138  address public starOwner */\n    tag_16:\n      0x01\n      0x00\n      swap1\n      sload\n      swap1\n      0x0100\n      exp\n      swap1\n      div\n      0xffffffffffffffffffffffffffffffffffffffff\n      and\n      dup2\n      jump\t// out\n        /* \"contracts/starNotary.sol\":273:379  function claimStar() public {... */\n    tag_20:\n        /* \"contracts/starNotary.sol\":323:333  msg.sender */\n      caller\n        /* \"contracts/starNotary.sol\":311:320  starOwner */\n      0x01\n      0x00\n        /* \"contracts/starNotary.sol\":311:333  starOwner = msg.sender */\n      0x0100\n      exp\n      dup2\n      sload\n      dup2\n      0xffffffffffffffffffffffffffffffffffffffff\n      mul\n      not\n      and\n      swap1\n      dup4\n      0xffffffffffffffffffffffffffffffffffffffff\n      and\n      mul\n      or\n      swap1\n      sstore\n      pop\n        /* \"contracts/starNotary.sol\":349:372  starClaimed(msg.sender) */\n      0xeb7b62b344bb3f85b6845f47ddc7878c8fc9946b9c4a4aacbd5274c883e9b66a\n        /* \"contracts/starNotary.sol\":361:371  msg.sender */\n      caller\n        /* \"contracts/starNotary.sol\":349:372  starClaimed(msg.sender) */\n      mload(0x40)\n      tag_31\n      swap2\n      swap1\n      tag_18\n      jump\t// in\n    tag_31:\n      mload(0x40)\n      dup1\n      swap2\n      sub\n      swap1\n      log1\n        /* \"contracts/starNotary.sol\":273:379  function claimStar() public {... */\n      jump\t// out\n        /* \"#utility.yul\":7:106   */\n    tag_32:\n        /* \"#utility.yul\":59:65   */\n      0x00\n        /* \"#utility.yul\":93:98   */\n      dup2\n        /* \"#utility.yul\":87:99   */\n      mload\n        /* \"#utility.yul\":77:99   */\n      swap1\n      pop\n        /* \"#utility.yul\":7:106   */\n      swap2\n      swap1\n      pop\n      jump\t// out\n        /* \"#utility.yul\":112:281   */\n    tag_33:\n        /* \"#utility.yul\":196:207   */\n      0x00\n        /* \"#utility.yul\":230:236   */\n      dup3\n        /* \"#utility.yul\":225:228   */\n      dup3\n        /* \"#utility.yul\":218:237   */\n      mstore\n        /* \"#utility.yul\":270:274   */\n      0x20\n        /* \"#utility.yul\":265:268   */\n      dup3\n        /* \"#utility.yul\":261:275   */\n      add\n        /* \"#utility.yul\":246:275   */\n      swap1\n      pop\n        /* \"#utility.yul\":112:281   */\n      swap3\n      swap2\n      pop\n      pop\n      jump\t// out\n        /* \"#utility.yul\":287:533   */\n    tag_34:\n        /* \"#utility.yul\":368:369   */\n      0x00\n        /* \"#utility.yul\":378:491   */\n    tag_73:\n        /* \"#utility.yul\":392:398   */\n      dup4\n        /* \"#utility.yul\":389:390   */\n      dup2\n        /* \"#utility.yul\":386:399   */\n      lt\n        /* \"#utility.yul\":378:491   */\n      iszero\n      tag_75\n      jumpi\n        /* \"#utility.yul\":477:478   */\n      dup1\n        /* \"#utility.yul\":472:475   */\n      dup3\n        /* \"#utility.yul\":468:479   */\n      add\n        /* \"#utility.yul\":462:480   */\n      mload\n        /* \"#utility.yul\":458:459   */\n      dup2\n        /* \"#utility.yul\":453:456   */\n      dup5\n        /* \"#utility.yul\":449:460   */\n      add\n        /* \"#utility.yul\":442:481   */\n      mstore\n        /* \"#utility.yul\":414:416   */\n      0x20\n        /* \"#utility.yul\":411:412   */\n      dup2\n        /* \"#utility.yul\":407:417   */\n      add\n        /* \"#utility.yul\":402:417   */\n      swap1\n      pop\n        /* \"#utility.yul\":378:491   */\n      jump(tag_73)\n    tag_75:\n        /* \"#utility.yul\":525:526   */\n      0x00\n        /* \"#utility.yul\":516:522   */\n      dup5\n        /* \"#utility.yul\":511:514   */\n      dup5\n        /* \"#utility.yul\":507:523   */\n      add\n        /* \"#utility.yul\":500:527   */\n      mstore\n        /* \"#utility.yul\":349:533   */\n      pop\n        /* \"#utility.yul\":287:533   */\n      pop\n      pop\n      pop\n      jump\t// out\n        /* \"#utility.yul\":539:641   */\n    tag_35:\n        /* \"#utility.yul\":580:586   */\n      0x00\n        /* \"#utility.yul\":631:633   */\n      0x1f\n        /* \"#utility.yul\":627:634   */\n      not\n        /* \"#utility.yul\":622:624   */\n      0x1f\n        /* \"#utility.yul\":615:620   */\n      dup4\n        /* \"#utility.yul\":611:625   */\n      add\n        /* \"#utility.yul\":607:635   */\n      and\n        /* \"#utility.yul\":597:635   */\n      swap1\n      pop\n        /* \"#utility.yul\":539:641   */\n      swap2\n      swap1\n      pop\n      jump\t// out\n        /* \"#utility.yul\":647:1024   */\n    tag_36:\n        /* \"#utility.yul\":735:738   */\n      0x00\n        /* \"#utility.yul\":763:802   */\n      tag_78\n        /* \"#utility.yul\":796:801   */\n      dup3\n        /* \"#utility.yul\":763:802   */\n      tag_32\n      jump\t// in\n    tag_78:\n        /* \"#utility.yul\":818:889   */\n      tag_79\n        /* \"#utility.yul\":882:888   */\n      dup2\n        /* \"#utility.yul\":877:880   */\n      dup6\n        /* \"#utility.yul\":818:889   */\n      tag_33\n      jump\t// in\n    tag_79:\n        /* \"#utility.yul\":811:889   */\n      swap4\n      pop\n        /* \"#utility.yul\":898:963   */\n      tag_80\n        /* \"#utility.yul\":956:962   */\n      dup2\n        /* \"#utility.yul\":951:954   */\n      dup6\n        /* \"#utility.yul\":944:948   */\n      0x20\n        /* \"#utility.yul\":937:942   */\n      dup7\n        /* \"#utility.yul\":933:949   */\n      add\n        /* \"#utility.yul\":898:963   */\n      tag_34\n      jump\t// in\n    tag_80:\n        /* \"#utility.yul\":988:1017   */\n      tag_81\n        /* \"#utility.yul\":1010:1016   */\n      dup2\n        /* \"#utility.yul\":988:1017   */\n      tag_35\n      jump\t// in\n    tag_81:\n        /* \"#utility.yul\":983:986   */\n      dup5\n        /* \"#utility.yul\":979:1018   */\n      add\n        /* \"#utility.yul\":972:1018   */\n      swap2\n      pop\n        /* \"#utility.yul\":739:1024   */\n      pop\n        /* \"#utility.yul\":647:1024   */\n      swap3\n      swap2\n      pop\n      pop\n      jump\t// out\n        /* \"#utility.yul\":1030:1343   */\n    tag_10:\n        /* \"#utility.yul\":1143:1147   */\n      0x00\n        /* \"#utility.yul\":1181:1183   */\n      0x20\n        /* \"#utility.yul\":1170:1179   */\n      dup3\n        /* \"#utility.yul\":1166:1184   */\n      add\n        /* \"#utility.yul\":1158:1184   */\n      swap1\n      pop\n        /* \"#utility.yul\":1230:1239   */\n      dup2\n        /* \"#utility.yul\":1224:1228   */\n      dup2\n        /* \"#utility.yul\":1220:1240   */\n      sub\n        /* \"#utility.yul\":1216:1217   */\n      0x00\n        /* \"#utility.yul\":1205:1214   */\n      dup4\n        /* \"#utility.yul\":1201:1218   */\n      add\n        /* \"#utility.yul\":1194:1241   */\n      mstore\n        /* \"#utility.yul\":1258:1336   */\n      tag_83\n        /* \"#utility.yul\":1331:1335   */\n      dup2\n        /* \"#utility.yul\":1322:1328   */\n      dup5\n        /* \"#utility.yul\":1258:1336   */\n      tag_36\n      jump\t// in\n    tag_83:\n        /* \"#utility.yul\":1250:1336   */\n      swap1\n      pop\n        /* \"#utility.yul\":1030:1343   */\n      swap3\n      swap2\n      pop\n      pop\n      jump\t// out\n        /* \"#utility.yul\":1349:1424   */\n    tag_37:\n        /* \"#utility.yul\":1382:1388   */\n      0x00\n        /* \"#utility.yul\":1415:1417   */\n      0x40\n        /* \"#utility.yul\":1409:1418   */\n      mload\n        /* \"#utility.yul\":1399:1418   */\n      swap1\n      pop\n        /* \"#utility.yul\":1349:1424   */\n      swap1\n      jump\t// out\n        /* \"#utility.yul\":1430:1547   */\n    tag_38:\n        /* \"#utility.yul\":1539:1540   */\n      0x00\n        /* \"#utility.yul\":1536:1537   */\n      dup1\n        /* \"#utility.yul\":1529:1541   */\n      revert\n        /* \"#utility.yul\":1553:1670   */\n    tag_39:\n        /* \"#utility.yul\":1662:1663   */\n      0x00\n        /* \"#utility.yul\":1659:1660   */\n      dup1\n        /* \"#utility.yul\":1652:1664   */\n      revert\n        /* \"#utility.yul\":1676:1793   */\n    tag_40:\n        /* \"#utility.yul\":1785:1786   */\n      0x00\n        /* \"#utility.yul\":1782:1783   */\n      dup1\n        /* \"#utility.yul\":1775:1787   */\n      revert\n        /* \"#utility.yul\":1799:1916   */\n    tag_41:\n        /* \"#utility.yul\":1908:1909   */\n      0x00\n        /* \"#utility.yul\":1905:1906   */\n      dup1\n        /* \"#utility.yul\":1898:1910   */\n      revert\n        /* \"#utility.yul\":1922:2102   */\n    tag_42:\n        /* \"#utility.yul\":1970:2047   */\n      0x4e487b7100000000000000000000000000000000000000000000000000000000\n        /* \"#utility.yul\":1967:1968   */\n      0x00\n        /* \"#utility.yul\":1960:2048   */\n      mstore\n        /* \"#utility.yul\":2067:2071   */\n      0x41\n        /* \"#utility.yul\":2064:2065   */\n      0x04\n        /* \"#utility.yul\":2057:2072   */\n      mstore\n        /* \"#utility.yul\":2091:2095   */\n      0x24\n        /* \"#utility.yul\":2088:2089   */\n      0x00\n        /* \"#utility.yul\":2081:2096   */\n      revert\n        /* \"#utility.yul\":2108:2389   */\n    tag_43:\n        /* \"#utility.yul\":2191:2218   */\n      tag_91\n        /* \"#utility.yul\":2213:2217   */\n      dup3\n        /* \"#utility.yul\":2191:2218   */\n      tag_35\n      jump\t// in\n    tag_91:\n        /* \"#utility.yul\":2183:2189   */\n      dup2\n        /* \"#utility.yul\":2179:2219   */\n      add\n        /* \"#utility.yul\":2321:2327   */\n      dup2\n        /* \"#utility.yul\":2309:2319   */\n      dup2\n        /* \"#utility.yul\":2306:2328   */\n      lt\n        /* \"#utility.yul\":2285:2303   */\n      0xffffffffffffffff\n        /* \"#utility.yul\":2273:2283   */\n      dup3\n        /* \"#utility.yul\":2270:2304   */\n      gt\n        /* \"#utility.yul\":2267:2329   */\n      or\n        /* \"#utility.yul\":2264:2352   */\n      iszero\n      tag_92\n      jumpi\n        /* \"#utility.yul\":2332:2350   */\n      tag_93\n      tag_42\n      jump\t// in\n    tag_93:\n        /* \"#utility.yul\":2264:2352   */\n    tag_92:\n        /* \"#utility.yul\":2372:2382   */\n      dup1\n        /* \"#utility.yul\":2368:2370   */\n      0x40\n        /* \"#utility.yul\":2361:2383   */\n      mstore\n        /* \"#utility.yul\":2151:2389   */\n      pop\n        /* \"#utility.yul\":2108:2389   */\n      pop\n      pop\n      jump\t// out\n        /* \"#utility.yul\":2395:2524   */\n    tag_44:\n        /* \"#utility.yul\":2429:2435   */\n      0x00\n        /* \"#utility.yul\":2456:2476   */\n      tag_95\n      tag_37\n      jump\t// in\n    tag_95:\n        /* \"#utility.yul\":2446:2476   */\n      swap1\n      pop\n        /* \"#utility.yul\":2485:2518   */\n      tag_96\n        /* \"#utility.yul\":2513:2517   */\n      dup3\n        /* \"#utility.yul\":2505:2511   */\n      dup3\n        /* \"#utility.yul\":2485:2518   */\n      tag_43\n      jump\t// in\n    tag_96:\n        /* \"#utility.yul\":2395:2524   */\n      swap2\n      swap1\n      pop\n      jump\t// out\n        /* \"#utility.yul\":2530:2838   */\n    tag_45:\n        /* \"#utility.yul\":2592:2596   */\n      0x00\n        /* \"#utility.yul\":2682:2700   */\n      0xffffffffffffffff\n        /* \"#utility.yul\":2674:2680   */\n      dup3\n        /* \"#utility.yul\":2671:2701   */\n      gt\n        /* \"#utility.yul\":2668:2724   */\n      iszero\n      tag_98\n      jumpi\n        /* \"#utility.yul\":2704:2722   */\n      tag_99\n      tag_42\n      jump\t// in\n    tag_99:\n        /* \"#utility.yul\":2668:2724   */\n    tag_98:\n        /* \"#utility.yul\":2742:2771   */\n      tag_100\n        /* \"#utility.yul\":2764:2770   */\n      dup3\n        /* \"#utility.yul\":2742:2771   */\n      tag_35\n      jump\t// in\n    tag_100:\n        /* \"#utility.yul\":2734:2771   */\n      swap1\n      pop\n        /* \"#utility.yul\":2826:2830   */\n      0x20\n        /* \"#utility.yul\":2820:2824   */\n      dup2\n        /* \"#utility.yul\":2816:2831   */\n      add\n        /* \"#utility.yul\":2808:2831   */\n      swap1\n      pop\n        /* \"#utility.yul\":2530:2838   */\n      swap2\n      swap1\n      pop\n      jump\t// out\n        /* \"#utility.yul\":2844:2990   */\n    tag_46:\n        /* \"#utility.yul\":2941:2947   */\n      dup3\n        /* \"#utility.yul\":2936:2939   */\n      dup2\n        /* \"#utility.yul\":2931:2934   */\n      dup4\n        /* \"#utility.yul\":2918:2948   */\n      calldatacopy\n        /* \"#utility.yul\":2982:2983   */\n      0x00\n        /* \"#utility.yul\":2973:2979   */\n      dup4\n        /* \"#utility.yul\":2968:2971   */\n      dup4\n        /* \"#utility.yul\":2964:2980   */\n      add\n        /* \"#utility.yul\":2957:2984   */\n      mstore\n        /* \"#utility.yul\":2844:2990   */\n      pop\n      pop\n      pop\n      jump\t// out\n        /* \"#utility.yul\":2996:3421   */\n    tag_47:\n        /* \"#utility.yul\":3074:3079   */\n      0x00\n        /* \"#utility.yul\":3099:3165   */\n      tag_103\n        /* \"#utility.yul\":3115:3164   */\n      tag_104\n        /* \"#utility.yul\":3157:3163   */\n      dup5\n        /* \"#utility.yul\":3115:3164   */\n      tag_45\n      jump\t// in\n    tag_104:\n        /* \"#utility.yul\":3099:3165   */\n      tag_44\n      jump\t// in\n    tag_103:\n        /* \"#utility.yul\":3090:3165   */\n      swap1\n      pop\n        /* \"#utility.yul\":3188:3194   */\n      dup3\n        /* \"#utility.yul\":3181:3186   */\n      dup2\n        /* \"#utility.yul\":3174:3195   */\n      mstore\n        /* \"#utility.yul\":3226:3230   */\n      0x20\n        /* \"#utility.yul\":3219:3224   */\n      dup2\n        /* \"#utility.yul\":3215:3231   */\n      add\n        /* \"#utility.yul\":3264:3267   */\n      dup5\n        /* \"#utility.yul\":3255:3261   */\n      dup5\n        /* \"#utility.yul\":3250:3253   */\n      dup5\n        /* \"#utility.yul\":3246:3262   */\n      add\n        /* \"#utility.yul\":3243:3268   */\n      gt\n        /* \"#utility.yul\":3240:3352   */\n      iszero\n      tag_105\n      jumpi\n        /* \"#utility.yul\":3271:3350   */\n      tag_106\n      tag_41\n      jump\t// in\n    tag_106:\n        /* \"#utility.yul\":3240:3352   */\n    tag_105:\n        /* \"#utility.yul\":3361:3415   */\n      tag_107\n        /* \"#utility.yul\":3408:3414   */\n      dup5\n        /* \"#utility.yul\":3403:3406   */\n      dup3\n        /* \"#utility.yul\":3398:3401   */\n      dup6\n        /* \"#utility.yul\":3361:3415   */\n      tag_46\n      jump\t// in\n    tag_107:\n        /* \"#utility.yul\":3080:3421   */\n      pop\n        /* \"#utility.yul\":2996:3421   */\n      swap4\n      swap3\n      pop\n      pop\n      pop\n      jump\t// out\n        /* \"#utility.yul\":3441:3781   */\n    tag_48:\n        /* \"#utility.yul\":3497:3502   */\n      0x00\n        /* \"#utility.yul\":3546:3549   */\n      dup3\n        /* \"#utility.yul\":3539:3543   */\n      0x1f\n        /* \"#utility.yul\":3531:3537   */\n      dup4\n        /* \"#utility.yul\":3527:3544   */\n      add\n        /* \"#utility.yul\":3523:3550   */\n      slt\n        /* \"#utility.yul\":3513:3635   */\n      tag_109\n      jumpi\n        /* \"#utility.yul\":3554:3633   */\n      tag_110\n      tag_40\n      jump\t// in\n    tag_110:\n        /* \"#utility.yul\":3513:3635   */\n    tag_109:\n        /* \"#utility.yul\":3671:3677   */\n      dup2\n        /* \"#utility.yul\":3658:3678   */\n      calldataload\n        /* \"#utility.yul\":3696:3775   */\n      tag_111\n        /* \"#utility.yul\":3771:3774   */\n      dup5\n        /* \"#utility.yul\":3763:3769   */\n      dup3\n        /* \"#utility.yul\":3756:3760   */\n      0x20\n        /* \"#utility.yul\":3748:3754   */\n      dup7\n        /* \"#utility.yul\":3744:3761   */\n      add\n        /* \"#utility.yul\":3696:3775   */\n      tag_47\n      jump\t// in\n    tag_111:\n        /* \"#utility.yul\":3687:3775   */\n      swap2\n      pop\n        /* \"#utility.yul\":3503:3781   */\n      pop\n        /* \"#utility.yul\":3441:3781   */\n      swap3\n      swap2\n      pop\n      pop\n      jump\t// out\n        /* \"#utility.yul\":3787:4296   */\n    tag_13:\n        /* \"#utility.yul\":3856:3862   */\n      0x00\n        /* \"#utility.yul\":3905:3907   */\n      0x20\n        /* \"#utility.yul\":3893:3902   */\n      dup3\n        /* \"#utility.yul\":3884:3891   */\n      dup5\n        /* \"#utility.yul\":3880:3903   */\n      sub\n        /* \"#utility.yul\":3876:3908   */\n      slt\n        /* \"#utility.yul\":3873:3992   */\n      iszero\n      tag_113\n      jumpi\n        /* \"#utility.yul\":3911:3990   */\n      tag_114\n      tag_38\n      jump\t// in\n    tag_114:\n        /* \"#utility.yul\":3873:3992   */\n    tag_113:\n        /* \"#utility.yul\":4059:4060   */\n      0x00\n        /* \"#utility.yul\":4048:4057   */\n      dup3\n        /* \"#utility.yul\":4044:4061   */\n      add\n        /* \"#utility.yul\":4031:4062   */\n      calldataload\n        /* \"#utility.yul\":4089:4107   */\n      0xffffffffffffffff\n        /* \"#utility.yul\":4081:4087   */\n      dup2\n        /* \"#utility.yul\":4078:4108   */\n      gt\n        /* \"#utility.yul\":4075:4192   */\n      iszero\n      tag_115\n      jumpi\n        /* \"#utility.yul\":4111:4190   */\n      tag_116\n      tag_39\n      jump\t// in\n    tag_116:\n        /* \"#utility.yul\":4075:4192   */\n    tag_115:\n        /* \"#utility.yul\":4216:4279   */\n      tag_117\n        /* \"#utility.yul\":4271:4278   */\n      dup5\n        /* \"#utility.yul\":4262:4268   */\n      dup3\n        /* \"#utility.yul\":4251:4260   */\n      dup6\n        /* \"#utility.yul\":4247:4269   */\n      add\n        /* \"#utility.yul\":4216:4279   */\n      tag_48\n      jump\t// in\n    tag_117:\n        /* \"#utility.yul\":4206:4279   */\n      swap2\n      pop\n        /* \"#utility.yul\":4002:4289   */\n      pop\n        /* \"#utility.yul\":3787:4296   */\n      swap3\n      swap2\n      pop\n      pop\n      jump\t// out\n        /* \"#utility.yul\":4302:4428   */\n    tag_49:\n        /* \"#utility.yul\":4339:4346   */\n      0x00\n        /* \"#utility.yul\":4379:4421   */\n      0xffffffffffffffffffffffffffffffffffffffff\n        /* \"#utility.yul\":4372:4377   */\n      dup3\n        /* \"#utility.yul\":4368:4422   */\n      and\n        /* \"#utility.yul\":4357:4422   */\n      swap1\n      pop\n        /* \"#utility.yul\":4302:4428   */\n      swap2\n      swap1\n      pop\n      jump\t// out\n        /* \"#utility.yul\":4434:4530   */\n    tag_50:\n        /* \"#utility.yul\":4471:4478   */\n      0x00\n        /* \"#utility.yul\":4500:4524   */\n      tag_120\n        /* \"#utility.yul\":4518:4523   */\n      dup3\n        /* \"#utility.yul\":4500:4524   */\n      tag_49\n      jump\t// in\n    tag_120:\n        /* \"#utility.yul\":4489:4524   */\n      swap1\n      pop\n        /* \"#utility.yul\":4434:4530   */\n      swap2\n      swap1\n      pop\n      jump\t// out\n        /* \"#utility.yul\":4536:4654   */\n    tag_51:\n        /* \"#utility.yul\":4623:4647   */\n      tag_122\n        /* \"#utility.yul\":4641:4646   */\n      dup2\n        /* \"#utility.yul\":4623:4647   */\n      tag_50\n      jump\t// in\n    tag_122:\n        /* \"#utility.yul\":4618:4621   */\n      dup3\n        /* \"#utility.yul\":4611:4648   */\n      mstore\n        /* \"#utility.yul\":4536:4654   */\n      pop\n      pop\n      jump\t// out\n        /* \"#utility.yul\":4660:4882   */\n    tag_18:\n        /* \"#utility.yul\":4753:4757   */\n      0x00\n        /* \"#utility.yul\":4791:4793   */\n      0x20\n        /* \"#utility.yul\":4780:4789   */\n      dup3\n        /* \"#utility.yul\":4776:4794   */\n      add\n        /* \"#utility.yul\":4768:4794   */\n      swap1\n      pop\n        /* \"#utility.yul\":4804:4875   */\n      tag_124\n        /* \"#utility.yul\":4872:4873   */\n      0x00\n        /* \"#utility.yul\":4861:4870   */\n      dup4\n        /* \"#utility.yul\":4857:4874   */\n      add\n        /* \"#utility.yul\":4848:4854   */\n      dup5\n        /* \"#utility.yul\":4804:4875   */\n      tag_51\n      jump\t// in\n    tag_124:\n        /* \"#utility.yul\":4660:4882   */\n      swap3\n      swap2\n      pop\n      pop\n      jump\t// out\n        /* \"#utility.yul\":4888:5068   */\n    tag_52:\n        /* \"#utility.yul\":4936:5013   */\n      0x4e487b7100000000000000000000000000000000000000000000000000000000\n        /* \"#utility.yul\":4933:4934   */\n      0x00\n        /* \"#utility.yul\":4926:5014   */\n      mstore\n        /* \"#utility.yul\":5033:5037   */\n      0x22\n        /* \"#utility.yul\":5030:5031   */\n      0x04\n        /* \"#utility.yul\":5023:5038   */\n      mstore\n        /* \"#utility.yul\":5057:5061   */\n      0x24\n        /* \"#utility.yul\":5054:5055   */\n      0x00\n        /* \"#utility.yul\":5047:5062   */\n      revert\n        /* \"#utility.yul\":5074:5394   */\n    tag_22:\n        /* \"#utility.yul\":5118:5124   */\n      0x00\n        /* \"#utility.yul\":5155:5156   */\n      0x02\n        /* \"#utility.yul\":5149:5153   */\n      dup3\n        /* \"#utility.yul\":5145:5157   */\n      div\n        /* \"#utility.yul\":5135:5157   */\n      swap1\n      pop\n        /* \"#utility.yul\":5202:5203   */\n      0x01\n        /* \"#utility.yul\":5196:5200   */\n      dup3\n        /* \"#utility.yul\":5192:5204   */\n      and\n        /* \"#utility.yul\":5223:5241   */\n      dup1\n        /* \"#utility.yul\":5213:5294   */\n      tag_127\n      jumpi\n        /* \"#utility.yul\":5279:5283   */\n      0x7f\n        /* \"#utility.yul\":5271:5277   */\n      dup3\n        /* \"#utility.yul\":5267:5284   */\n      and\n        /* \"#utility.yul\":5257:5284   */\n      swap2\n      pop\n        /* \"#utility.yul\":5213:5294   */\n    tag_127:\n        /* \"#utility.yul\":5341:5343   */\n      0x20\n        /* \"#utility.yul\":5333:5339   */\n      dup3\n        /* \"#utility.yul\":5330:5344   */\n      lt\n        /* \"#utility.yul\":5310:5328   */\n      dup2\n        /* \"#utility.yul\":5307:5345   */\n      sub\n        /* \"#utility.yul\":5304:5388   */\n      tag_128\n      jumpi\n        /* \"#utility.yul\":5360:5378   */\n      tag_129\n      tag_52\n      jump\t// in\n    tag_129:\n        /* \"#utility.yul\":5304:5388   */\n    tag_128:\n        /* \"#utility.yul\":5125:5394   */\n      pop\n        /* \"#utility.yul\":5074:5394   */\n      swap2\n      swap1\n      pop\n      jump\t// out\n        /* \"#utility.yul\":5400:5541   */\n    tag_53:\n        /* \"#utility.yul\":5449:5453   */\n      0x00\n        /* \"#utility.yul\":5472:5475   */\n      dup2\n        /* \"#utility.yul\":5464:5475   */\n      swap1\n      pop\n        /* \"#utility.yul\":5495:5498   */\n      dup2\n        /* \"#utility.yul\":5492:5493   */\n      0x00\n        /* \"#utility.yul\":5485:5499   */\n      mstore\n        /* \"#utility.yul\":5529:5533   */\n      0x20\n        /* \"#utility.yul\":5526:5527   */\n      0x00\n        /* \"#utility.yul\":5516:5534   */\n      keccak256\n        /* \"#utility.yul\":5508:5534   */\n      swap1\n      pop\n        /* \"#utility.yul\":5400:5541   */\n      swap2\n      swap1\n      pop\n      jump\t// out\n        /* \"#utility.yul\":5547:5640   */\n    tag_54:\n        /* \"#utility.yul\":5584:5590   */\n      0x00\n        /* \"#utility.yul\":5631:5633   */\n      0x20\n        /* \"#utility.yul\":5626:5628   */\n      0x1f\n        /* \"#utility.yul\":5619:5624   */\n      dup4\n        /* \"#utility.yul\":5615:5629   */\n      add\n        /* \"#utility.yul\":5611:5634   */\n      div\n        /* \"#utility.yul\":5601:5634   */\n      swap1\n      pop\n        /* \"#utility.yul\":5547:5640   */\n      swap2\n      swap1\n      pop\n      jump\t// out\n        /* \"#utility.yul\":5646:5753   */\n    tag_55:\n        /* \"#utility.yul\":5690:5698   */\n      0x00\n        /* \"#utility.yul\":5740:5745   */\n      dup3\n        /* \"#utility.yul\":5734:5738   */\n      dup3\n        /* \"#utility.yul\":5730:5746   */\n      shl\n        /* \"#utility.yul\":5709:5746   */\n      swap1\n      pop\n        /* \"#utility.yul\":5646:5753   */\n      swap3\n      swap2\n      pop\n      pop\n      jump\t// out\n        /* \"#utility.yul\":5759:6152   */\n    tag_56:\n        /* \"#utility.yul\":5828:5834   */\n      0x00\n        /* \"#utility.yul\":5878:5879   */\n      0x08\n        /* \"#utility.yul\":5866:5876   */\n      dup4\n        /* \"#utility.yul\":5862:5880   */\n      mul\n        /* \"#utility.yul\":5901:5998   */\n      tag_134\n        /* \"#utility.yul\":5931:5997   */\n      0xffffffffffffffffffffffffffffffffffffffffffffffffffffffffffffffff\n        /* \"#utility.yul\":5920:5929   */\n      dup3\n        /* \"#utility.yul\":5901:5998   */\n      tag_55\n      jump\t// in\n    tag_134:\n        /* \"#utility.yul\":6019:6058   */\n      tag_135\n        /* \"#utility.yul\":6049:6057   */\n      dup7\n        /* \"#utility.yul\":6038:6047   */\n      dup4\n        /* \"#utility.yul\":6019:6058   */\n      tag_55\n      jump\t// in\n    tag_135:\n        /* \"#utility.yul\":6007:6058   */\n      swap6\n      pop\n        /* \"#utility.yul\":6091:6095   */\n      dup1\n        /* \"#utility.yul\":6087:6096   */\n      not\n        /* \"#utility.yul\":6080:6085   */\n      dup5\n        /* \"#utility.yul\":6076:6097   */\n      and\n        /* \"#utility.yul\":6067:6097   */\n      swap4\n      pop\n        /* \"#utility.yul\":6140:6144   */\n      dup1\n        /* \"#utility.yul\":6130:6138   */\n      dup7\n        /* \"#utility.yul\":6126:6145   */\n      and\n        /* \"#utility.yul\":6119:6124   */\n      dup5\n        /* \"#utility.yul\":6116:6146   */\n      or\n        /* \"#utility.yul\":6106:6146   */\n      swap3\n      pop\n        /* \"#utility.yul\":5835:6152   */\n      pop\n      pop\n        /* \"#utility.yul\":5759:6152   */\n      swap4\n      swap3\n      pop\n      pop\n      pop\n      jump\t// out\n        /* \"#utility.yul\":6158:6235   */\n    tag_57:\n        /* \"#utility.yul\":6195:6202   */\n      0x00\n        /* \"#utility.yul\":6224:6229   */\n      dup2\n        /* \"#utility.yul\":6213:6229   */\n      swap1\n      pop\n        /* \"#utility.yul\":6158:6235   */\n      swap2\n      swap1\n      pop\n      jump\t// out\n        /* \"#utility.yul\":6241:6301   */\n    tag_58:\n        /* \"#utility.yul\":6269:6272   */\n      0x00\n        /* \"#utility.yul\":6290:6295   */\n      dup2\n        /* \"#utility.yul\":6283:6295   */\n      swap1\n      pop\n        /* \"#utility.yul\":6241:6301   */\n      swap2\n      swap1\n      pop\n      jump\t// out\n        /* \"#utility.yul\":6307:6449   */\n    tag_59:\n        /* \"#utility.yul\":6357:6366   */\n      0x00\n        /* \"#utility.yul\":6390:6443   */\n      tag_139\n        /* \"#utility.yul\":6408:6442   */\n      tag_140\n        /* \"#utility.yul\":6417:6441   */\n      tag_141\n        /* \"#utility.yul\":6435:6440   */\n      dup5\n        /* \"#utility.yul\":6417:6441   */\n      tag_57\n      jump\t// in\n    tag_141:\n        /* \"#utility.yul\":6408:6442   */\n      tag_58\n      jump\t// in\n    tag_140:\n        /* \"#utility.yul\":6390:6443   */\n      tag_57\n      jump\t// in\n    tag_139:\n        /* \"#utility.yul\":6377:6443   */\n      swap1\n      pop\n        /* \"#utility.yul\":6307:6449   */\n      swap2\n      swap1\n      pop\n      jump\t// out\n        /* \"#utility.yul\":6455:6530   */\n    tag_60:\n        /* \"#utility.yul\":6498:6501   */\n      0x00\n        /* \"#utility.yul\":6519:6524   */\n      dup2\n        /* \"#utility.yul\":6512:6524   */\n      swap1\n      pop\n        /* \"#utility.yul\":6455:6530   */\n      swap2\n      swap1\n      pop\n      jump\t// out\n        /* \"#utility.yul\":6536:6805   */\n    tag_61:\n        /* \"#utility.yul\":6646:6685   */\n      tag_144\n        /* \"#utility.yul\":6677:6684   */\n      dup4\n        /* \"#utility.yul\":6646:6685   */\n      tag_59\n      jump\t// in\n    tag_144:\n        /* \"#utility.yul\":6707:6798   */\n      tag_145\n        /* \"#utility.yul\":6756:6797   */\n      tag_146\n        /* \"#utility.yul\":6780:6796   */\n      dup3\n        /* \"#utility.yul\":6756:6797   */\n      tag_60\n      jump\t// in\n    tag_146:\n        /* \"#utility.yul\":6748:6754   */\n      dup5\n        /* \"#utility.yul\":6741:6745   */\n      dup5\n        /* \"#utility.yul\":6735:6746   */\n      sload\n        /* \"#utility.yul\":6707:6798   */\n      tag_56\n      jump\t// in\n    tag_145:\n        /* \"#utility.yul\":6701:6705   */\n      dup3\n        /* \"#utility.yul\":6694:6799   */\n      sstore\n        /* \"#utility.yul\":6612:6805   */\n      pop\n        /* \"#utility.yul\":6536:6805   */\n      pop\n      pop\n      pop\n      jump\t// out\n        /* \"#utility.yul\":6811:6884   */\n    tag_62:\n        /* \"#utility.yul\":6856:6859   */\n      0x00\n        /* \"#utility.yul\":6811:6884   */\n      swap1\n      jump\t// out\n        /* \"#utility.yul\":6890:7079   */\n    tag_63:\n        /* \"#utility.yul\":6967:6999   */\n      tag_149\n      tag_62\n      jump\t// in\n    tag_149:\n        /* \"#utility.yul\":7008:7073   */\n      tag_150\n        /* \"#utility.yul\":7066:7072   */\n      dup2\n        /* \"#utility.yul\":7058:7064   */\n      dup5\n        /* \"#utility.yul\":7052:7056   */\n      dup5\n        /* \"#utility.yul\":7008:7073   */\n      tag_61\n      jump\t// in\n    tag_150:\n        /* \"#utility.yul\":6943:7079   */\n      pop\n        /* \"#utility.yul\":6890:7079   */\n      pop\n      pop\n      jump\t// out\n        /* \"#utility.yul\":7085:7271   */\n    tag_64:\n        /* \"#utility.yul\":7145:7265   */\n    tag_152:\n        /* \"#utility.yul\":7162:7165   */\n      dup2\n        /* \"#utility.yul\":7155:7160   */\n      dup2\n        /* \"#utility.yul\":7152:7166   */\n      lt\n        /* \"#utility.yul\":7145:7265   */\n      iszero\n      tag_154\n      jumpi\n        /* \"#utility.yul\":7216:7255   */\n      tag_155\n        /* \"#utility.yul\":7253:7254   */\n      0x00\n        /* \"#utility.yul\":7246:7251   */\n      dup3\n        /* \"#utility.yul\":7216:7255   */\n      tag_63\n      jump\t// in\n    tag_155:\n        /* \"#utility.yul\":7189:7190   */\n      0x01\n        /* \"#utility.yul\":7182:7187   */\n      dup2\n        /* \"#utility.yul\":7178:7191   */\n      add\n        /* \"#utility.yul\":7169:7191   */\n      swap1\n      pop\n        /* \"#utility.yul\":7145:7265   */\n      jump(tag_152)\n    tag_154:\n        /* \"#utility.yul\":7085:7271   */\n      pop\n      pop\n      jump\t// out\n        /* \"#utility.yul\":7277:7820   */\n    tag_65:\n        /* \"#utility.yul\":7378:7380   */\n      0x1f\n        /* \"#utility.yul\":7373:7376   */\n      dup3\n        /* \"#utility.yul\":7370:7381   */\n      gt\n        /* \"#utility.yul\":7367:7813   */\n      iszero\n      tag_157\n      jumpi\n        /* \"#utility.yul\":7412:7450   */\n      tag_158\n        /* \"#utility.yul\":7444:7449   */\n      dup2\n        /* \"#utility.yul\":7412:7450   */\n      tag_53\n      jump\t// in\n    tag_158:\n        /* \"#utility.yul\":7496:7525   */\n      tag_159\n        /* \"#utility.yul\":7514:7524   */\n      dup5\n        /* \"#utility.yul\":7496:7525   */\n      tag_54\n      jump\t// in\n    tag_159:\n        /* \"#utility.yul\":7486:7494   */\n      dup2\n        /* \"#utility.yul\":7482:7526   */\n      add\n        /* \"#utility.yul\":7679:7681   */\n      0x20\n        /* \"#utility.yul\":7667:7677   */\n      dup6\n        /* \"#utility.yul\":7664:7682   */\n      lt\n        /* \"#utility.yul\":7661:7710   */\n      iszero\n      tag_160\n      jumpi\n        /* \"#utility.yul\":7700:7708   */\n      dup2\n        /* \"#utility.yul\":7685:7708   */\n      swap1\n      pop\n        /* \"#utility.yul\":7661:7710   */\n    tag_160:\n        /* \"#utility.yul\":7723:7803   */\n      tag_161\n        /* \"#utility.yul\":7779:7801   */\n      tag_162\n        /* \"#utility.yul\":7797:7800   */\n      dup6\n        /* \"#utility.yul\":7779:7801   */\n      tag_54\n      jump\t// in\n    tag_162:\n        /* \"#utility.yul\":7769:7777   */\n      dup4\n        /* \"#utility.yul\":7765:7802   */\n      add\n        /* \"#utility.yul\":7752:7763   */\n      dup3\n        /* \"#utility.yul\":7723:7803   */\n      tag_64\n      jump\t// in\n    tag_161:\n        /* \"#utility.yul\":7382:7813   */\n      pop\n      pop\n        /* \"#utility.yul\":7367:7813   */\n    tag_157:\n        /* \"#utility.yul\":7277:7820   */\n      pop\n      pop\n      pop\n      jump\t// out\n        /* \"#utility.yul\":7826:7943   */\n    tag_66:\n        /* \"#utility.yul\":7880:7888   */\n      0x00\n        /* \"#utility.yul\":7930:7935   */\n      dup3\n        /* \"#utility.yul\":7924:7928   */\n      dup3\n        /* \"#utility.yul\":7920:7936   */\n      shr\n        /* \"#utility.yul\":7899:7936   */\n      swap1\n      pop\n        /* \"#utility.yul\":7826:7943   */\n      swap3\n      swap2\n      pop\n      pop\n      jump\t// out\n        /* \"#utility.yul\":7949:8118   */\n    tag_67:\n        /* \"#utility.yul\":7993:7999   */\n      0x00\n        /* \"#utility.yul\":8026:8077   */\n      tag_165\n        /* \"#utility.yul\":8074:8075   */\n      0x00\n        /* \"#utility.yul\":8070:8076   */\n      not\n        /* \"#utility.yul\":8062:8067   */\n      dup5\n        /* \"#utility.yul\":8059:8060   */\n      0x08\n        /* \"#utility.yul\":8055:8068   */\n      mul\n        /* \"#utility.yul\":8026:8077   */\n      tag_66\n      jump\t// in\n    tag_165:\n        /* \"#utility.yul\":8022:8078   */\n      not\n        /* \"#utility.yul\":8107:8111   */\n      dup1\n        /* \"#utility.yul\":8101:8105   */\n      dup4\n        /* \"#utility.yul\":8097:8112   */\n      and\n        /* \"#utility.yul\":8087:8112   */\n      swap2\n      pop\n        /* \"#utility.yul\":8000:8118   */\n      pop\n        /* \"#utility.yul\":7949:8118   */\n      swap3\n      swap2\n      pop\n      pop\n      jump\t// out\n        /* \"#utility.yul\":8123:8418   */\n    tag_68:\n        /* \"#utility.yul\":8199:8203   */\n      0x00\n        /* \"#utility.yul\":8345:8374   */\n      tag_167\n        /* \"#utility.yul\":8370:8373   */\n      dup4\n        /* \"#utility.yul\":8364:8368   */\n      dup4\n        /* \"#utility.yul\":8345:8374   */\n      tag_67\n      jump\t// in\n    tag_167:\n        /* \"#utility.yul\":8337:8374   */\n      swap2\n      pop\n        /* \"#utility.yul\":8407:8410   */\n      dup3\n        /* \"#utility.yul\":8404:8405   */\n      0x02\n        /* \"#utility.yul\":8400:8411   */\n      mul\n        /* \"#utility.yul\":8394:8398   */\n      dup3\n        /* \"#utility.yul\":8391:8412   */\n      or\n        /* \"#utility.yul\":8383:8412   */\n      swap1\n      pop\n        /* \"#utility.yul\":8123:8418   */\n      swap3\n      swap2\n      pop\n      pop\n      jump\t// out\n        /* \"#utility.yul\":8423:9818   */\n    tag_29:\n        /* \"#utility.yul\":8540:8577   */\n      tag_169\n        /* \"#utility.yul\":8573:8576   */\n      dup3\n        /* \"#utility.yul\":8540:8577   */\n      tag_32\n      jump\t// in\n    tag_169:\n        /* \"#utility.yul\":8642:8660   */\n      0xffffffffffffffff\n        /* \"#utility.yul\":8634:8640   */\n      dup2\n        /* \"#utility.yul\":8631:8661   */\n      gt\n        /* \"#utility.yul\":8628:8684   */\n      iszero\n      tag_170\n      jumpi\n        /* \"#utility.yul\":8664:8682   */\n      tag_171\n      tag_42\n      jump\t// in\n    tag_171:\n        /* \"#utility.yul\":8628:8684   */\n    tag_170:\n        /* \"#utility.yul\":8708:8746   */\n      tag_172\n        /* \"#utility.yul\":8740:8744   */\n      dup3\n        /* \"#utility.yul\":8734:8745   */\n      sload\n        /* \"#utility.yul\":8708:8746   */\n      tag_22\n      jump\t// in\n    tag_172:\n        /* \"#utility.yul\":8793:8860   */\n      tag_173\n        /* \"#utility.yul\":8853:8859   */\n      dup3\n        /* \"#utility.yul\":8845:8851   */\n      dup3\n        /* \"#utility.yul\":8839:8843   */\n      dup6\n        /* \"#utility.yul\":8793:8860   */\n      tag_65\n      jump\t// in\n    tag_173:\n        /* \"#utility.yul\":8887:8888   */\n      0x00\n        /* \"#utility.yul\":8911:8915   */\n      0x20\n        /* \"#utility.yul\":8898:8915   */\n      swap1\n      pop\n        /* \"#utility.yul\":8943:8945   */\n      0x1f\n        /* \"#utility.yul\":8935:8941   */\n      dup4\n        /* \"#utility.yul\":8932:8946   */\n      gt\n        /* \"#utility.yul\":8960:8961   */\n      0x01\n        /* \"#utility.yul\":8955:9573   */\n      dup2\n      eq\n      tag_175\n      jumpi\n        /* \"#utility.yul\":9617:9618   */\n      0x00\n        /* \"#utility.yul\":9634:9640   */\n      dup5\n        /* \"#utility.yul\":9631:9708   */\n      iszero\n      tag_176\n      jumpi\n        /* \"#utility.yul\":9683:9692   */\n      dup3\n        /* \"#utility.yul\":9678:9681   */\n      dup8\n        /* \"#utility.yul\":9674:9693   */\n      add\n        /* \"#utility.yul\":9668:9694   */\n      mload\n        /* \"#utility.yul\":9659:9694   */\n      swap1\n      pop\n        /* \"#utility.yul\":9631:9708   */\n    tag_176:\n        /* \"#utility.yul\":9734:9801   */\n      tag_177\n        /* \"#utility.yul\":9794:9800   */\n      dup6\n        /* \"#utility.yul\":9787:9792   */\n      dup3\n        /* \"#utility.yul\":9734:9801   */\n      tag_68\n      jump\t// in\n    tag_177:\n        /* \"#utility.yul\":9728:9732   */\n      dup7\n        /* \"#utility.yul\":9721:9802   */\n      sstore\n        /* \"#utility.yul\":9590:9812   */\n      pop\n        /* \"#utility.yul\":8925:9812   */\n      jump(tag_174)\n        /* \"#utility.yul\":8955:9573   */\n    tag_175:\n        /* \"#utility.yul\":9007:9011   */\n      0x1f\n        /* \"#utility.yul\":9003:9012   */\n      not\n        /* \"#utility.yul\":8995:9001   */\n      dup5\n        /* \"#utility.yul\":8991:9013   */\n      and\n        /* \"#utility.yul\":9041:9078   */\n      tag_178\n        /* \"#utility.yul\":9073:9077   */\n      dup7\n        /* \"#utility.yul\":9041:9078   */\n      tag_53\n      jump\t// in\n    tag_178:\n        /* \"#utility.yul\":9100:9101   */\n      0x00\n        /* \"#utility.yul\":9114:9322   */\n    tag_179:\n        /* \"#utility.yul\":9128:9135   */\n      dup3\n        /* \"#utility.yul\":9125:9126   */\n      dup2\n        /* \"#utility.yul\":9122:9136   */\n      lt\n        /* \"#utility.yul\":9114:9322   */\n      iszero\n      tag_181\n      jumpi\n        /* \"#utility.yul\":9207:9216   */\n      dup5\n        /* \"#utility.yul\":9202:9205   */\n      dup10\n        /* \"#utility.yul\":9198:9217   */\n      add\n        /* \"#utility.yul\":9192:9218   */\n      mload\n        /* \"#utility.yul\":9184:9190   */\n      dup3\n        /* \"#utility.yul\":9177:9219   */\n      sstore\n        /* \"#utility.yul\":9258:9259   */\n      0x01\n        /* \"#utility.yul\":9250:9256   */\n      dup3\n        /* \"#utility.yul\":9246:9260   */\n      add\n        /* \"#utility.yul\":9236:9260   */\n      swap2\n      pop\n        /* \"#utility.yul\":9305:9307   */\n      0x20\n        /* \"#utility.yul\":9294:9303   */\n      dup6\n        /* \"#utility.yul\":9290:9308   */\n      add\n        /* \"#utility.yul\":9277:9308   */\n      swap5\n      pop\n        /* \"#utility.yul\":9151:9155   */\n      0x20\n        /* \"#utility.yul\":9148:9149   */\n      dup2\n        /* \"#utility.yul\":9144:9156   */\n      add\n        /* \"#utility.yul\":9139:9156   */\n      swap1\n      pop\n        /* \"#utility.yul\":9114:9322   */\n      jump(tag_179)\n    tag_181:\n        /* \"#utility.yul\":9350:9356   */\n      dup7\n        /* \"#utility.yul\":9341:9348   */\n      dup4\n        /* \"#utility.yul\":9338:9357   */\n      lt\n        /* \"#utility.yul\":9335:9514   */\n      iszero\n      tag_182\n      jumpi\n        /* \"#utility.yul\":9408:9417   */\n      dup5\n        /* \"#utility.yul\":9403:9406   */\n      dup10\n        /* \"#utility.yul\":9399:9418   */\n      add\n        /* \"#utility.yul\":9393:9419   */\n      mload\n        /* \"#utility.yul\":9451:9499   */\n      tag_183\n        /* \"#utility.yul\":9493:9497   */\n      0x1f\n        /* \"#utility.yul\":9485:9491   */\n      dup10\n        /* \"#utility.yul\":9481:9498   */\n      and\n        /* \"#utility.yul\":9470:9479   */\n      dup3\n        /* \"#utility.yul\":9451:9499   */\n      tag_67\n      jump\t// in\n    tag_183:\n        /* \"#utility.yul\":9443:9449   */\n      dup4\n        /* \"#utility.yul\":9436:9500   */\n      sstore\n        /* \"#utility.yul\":9358:9514   */\n      pop\n        /* \"#utility.yul\":9335:9514   */\n    tag_182:\n        /* \"#utility.yul\":9560:9561   */\n      0x01\n        /* \"#utility.yul\":9556:9557   */\n      0x02\n        /* \"#utility.yul\":9548:9554   */\n      dup9\n        /* \"#utility.yul\":9544:9558   */\n      mul\n        /* \"#utility.yul\":9540:9562   */\n      add\n        /* \"#utility.yul\":9534:9538   */\n      dup9\n        /* \"#utility.yul\":9527:9563   */\n      sstore\n        /* \"#utility.yul\":8962:9573   */\n      pop\n      pop\n      pop\n        /* \"#utility.yul\":8925:9812   */\n    tag_174:\n      pop\n        /* \"#utility.yul\":8515:9818   */\n      pop\n      pop\n      pop\n        /* \"#utility.yul\":8423:9818   */\n      pop\n      pop\n      jump\t// out\n\n    auxdata: 0xa2646970667358221220ea475fa4a7f8d06f6d0aa92f972fd39654aa264f4d5e728e220502455309704164736f6c63430008120033\n}\n",
				"bytecode": {
					"linkReferences": {},
					"object": "608060405234801561001057600080fd5b506107b2806100206000396000f3fe608060405234801561001057600080fd5b506004361061004c5760003560e01c806388d5896c146100515780639bd78a261461006f578063a434c2721461008b578063c5946ae0146100a9575b600080fd5b6100596100b3565b6040516100669190610284565b60405180910390f35b610089600480360381019061008491906103ef565b610141565b005b610093610154565b6040516100a09190610479565b60405180910390f35b6100b161017a565b005b600080546100c0906104c3565b80601f01602080910402602001604051908101604052809291908181526020018280546100ec906104c3565b80156101395780601f1061010e57610100808354040283529160200191610139565b820191906000526020600020905b81548152906001019060200180831161011c57829003601f168201915b505050505081565b806000908161015091906106aa565b5050565b600160009054906101000a900473ffffffffffffffffffffffffffffffffffffffff1681565b33600160006101000a81548173ffffffffffffffffffffffffffffffffffffffff021916908373ffffffffffffffffffffffffffffffffffffffff1602179055507feb7b62b344bb3f85b6845f47ddc7878c8fc9946b9c4a4aacbd5274c883e9b66a336040516101ea9190610479565b60405180910390a1565b600081519050919050565b600082825260208201905092915050565b60005b8381101561022e578082015181840152602081019050610213565b60008484015250505050565b6000601f19601f8301169050919050565b6000610256826101f4565b61026081856101ff565b9350610270818560208601610210565b6102798161023a565b840191505092915050565b6000602082019050818103600083015261029e818461024b565b905092915050565b6000604051905090565b600080fd5b600080fd5b600080fd5b600080fd5b7f4e487b7100000000000000000000000000000000000000000000000000000000600052604160045260246000fd5b6102fc8261023a565b810181811067ffffffffffffffff8211171561031b5761031a6102c4565b5b80604052505050565b600061032e6102a6565b905061033a82826102f3565b919050565b600067ffffffffffffffff82111561035a576103596102c4565b5b6103638261023a565b9050602081019050919050565b82818337600083830152505050565b600061039261038d8461033f565b610324565b9050828152602081018484840111156103ae576103ad6102bf565b5b6103b9848285610370565b509392505050565b600082601f8301126103d6576103d56102ba565b5b81356103e684826020860161037f565b91505092915050565b600060208284031215610405576104046102b0565b5b600082013567ffffffffffffffff811115610423576104226102b5565b5b61042f848285016103c1565b91505092915050565b600073ffffffffffffffffffffffffffffffffffffffff82169050919050565b600061046382610438565b9050919050565b61047381610458565b82525050565b600060208201905061048e600083018461046a565b92915050565b7f4e487b7100000000000000000000000000000000000000000000000000000000600052602260045260246000fd5b600060028204905060018216806104db57607f821691505b6020821081036104ee576104ed610494565b5b50919050565b60008190508160005260206000209050919050565b60006020601f8301049050919050565b600082821b905092915050565b6000600883026105567fffffffffffffffffffffffffffffffffffffffffffffffffffffffffffffffff82610519565b6105608683610519565b95508019841693508086168417925050509392505050565b6000819050919050565b6000819050919050565b60006105a76105a261059d84610578565b610582565b610578565b9050919050565b6000819050919050565b6105c18361058c565b6105d56105cd826105ae565b848454610526565b825550505050565b600090565b6105ea6105dd565b6105f58184846105b8565b505050565b5b818110156106195761060e6000826105e2565b6001810190506105fb565b5050565b601f82111561065e5761062f816104f4565b61063884610509565b81016020851015610647578190505b61065b61065385610509565b8301826105fa565b50505b505050565b600082821c905092915050565b600061068160001984600802610663565b1980831691505092915050565b600061069a8383610670565b9150826002028217905092915050565b6106b3826101f4565b67ffffffffffffffff8111156106cc576106cb6102c4565b5b6106d682546104c3565b6106e182828561061d565b600060209050601f8311600181146107145760008415610702578287015190505b61070c858261068e565b865550610774565b601f198416610722866104f4565b60005b8281101561074a57848901518255600182019150602085019450602081019050610725565b868310156107675784890151610763601f891682610670565b8355505b6001600288020188555050505b50505050505056fea2646970667358221220ea475fa4a7f8d06f6d0aa92f972fd39654aa264f4d5e728e220502455309704164736f6c63430008120033",
					"opcodes": "PUSH1 0x80 PUSH1 0x40 MSTORE CALLVALUE DUP1 ISZERO PUSH2 0x10 JUMPI PUSH1 0x0 DUP1 REVERT JUMPDEST POP PUSH2 0x7B2 DUP1 PUSH2 0x20 PUSH1 0x0 CODECOPY PUSH1 0x0 RETURN INVALID PUSH1 0x80 PUSH1 0x40 MSTORE CALLVALUE DUP1 ISZERO PUSH2 0x10 JUMPI PUSH1 0x0 DUP1 REVERT JUMPDEST POP PUSH1 0x4 CALLDATASIZE LT PUSH2 0x4C JUMPI PUSH1 0x0 CALLDATALOAD PUSH1 0xE0 SHR DUP1 PUSH4 0x88D5896C EQ PUSH2 0x51 JUMPI DUP1 PUSH4 0x9BD78A26 EQ PUSH2 0x6F JUMPI DUP1 PUSH4 0xA434C272 EQ PUSH2 0x8B JUMPI DUP1 PUSH4 0xC5946AE0 EQ PUSH2 0xA9 JUMPI JUMPDEST PUSH1 0x0 DUP1 REVERT JUMPDEST PUSH2 0x59 PUSH2 0xB3 JUMP JUMPDEST PUSH1 0x40 MLOAD PUSH2 0x66 SWAP2 SWAP1 PUSH2 0x284 JUMP JUMPDEST PUSH1 0x40 MLOAD DUP1 SWAP2 SUB SWAP1 RETURN JUMPDEST PUSH2 0x89 PUSH1 0x4 DUP1 CALLDATASIZE SUB DUP2 ADD SWAP1 PUSH2 0x84 SWAP2 SWAP1 PUSH2 0x3EF JUMP JUMPDEST PUSH2 0x141 JUMP JUMPDEST STOP JUMPDEST PUSH2 0x93 PUSH2 0x154 JUMP JUMPDEST PUSH1 0x40 MLOAD PUSH2 0xA0 SWAP2 SWAP1 PUSH2 0x479 JUMP JUMPDEST PUSH1 0x40 MLOAD DUP1 SWAP2 SUB SWAP1 RETURN JUMPDEST PUSH2 0xB1 PUSH2 0x17A JUMP JUMPDEST STOP JUMPDEST PUSH1 0x0 DUP1 SLOAD PUSH2 0xC0 SWAP1 PUSH2 0x4C3 JUMP JUMPDEST DUP1 PUSH1 0x1F ADD PUSH1 0x20 DUP1 SWAP2 DIV MUL PUSH1 0x20 ADD PUSH1 0x40 MLOAD SWAP1 DUP2 ADD PUSH1 0x40 MSTORE DUP1 SWAP3 SWAP2 SWAP1 DUP2 DUP2 MSTORE PUSH1 0x20 ADD DUP3 DUP1 SLOAD PUSH2 0xEC SWAP1 PUSH2 0x4C3 JUMP JUMPDEST DUP1 ISZERO PUSH2 0x139 JUMPI DUP1 PUSH1 0x1F LT PUSH2 0x10E JUMPI PUSH2 0x100 DUP1 DUP4 SLOAD DIV MUL DUP4 MSTORE SWAP2 PUSH1 0x20 ADD SWAP2 PUSH2 0x139 JUMP JUMPDEST DUP3 ADD SWAP2 SWAP1 PUSH1 0x0 MSTORE PUSH1 0x20 PUSH1 0x0 KECCAK256 SWAP1 JUMPDEST DUP2 SLOAD DUP2 MSTORE SWAP1 PUSH1 0x1 ADD SWAP1 PUSH1 0x20 ADD DUP1 DUP4 GT PUSH2 0x11C JUMPI DUP3 SWAP1 SUB PUSH1 0x1F AND DUP3 ADD SWAP2 JUMPDEST POP POP POP POP POP DUP2 JUMP JUMPDEST DUP1 PUSH1 0x0 SWAP1 DUP2 PUSH2 0x150 SWAP2 SWAP1 PUSH2 0x6AA JUMP JUMPDEST POP POP JUMP JUMPDEST PUSH1 0x1 PUSH1 0x0 SWAP1 SLOAD SWAP1 PUSH2 0x100 EXP SWAP1 DIV PUSH20 0xFFFFFFFFFFFFFFFFFFFFFFFFFFFFFFFFFFFFFFFF AND DUP2 JUMP JUMPDEST CALLER PUSH1 0x1 PUSH1 0x0 PUSH2 0x100 EXP DUP2 SLOAD DUP2 PUSH20 0xFFFFFFFFFFFFFFFFFFFFFFFFFFFFFFFFFFFFFFFF MUL NOT AND SWAP1 DUP4 PUSH20 0xFFFFFFFFFFFFFFFFFFFFFFFFFFFFFFFFFFFFFFFF AND MUL OR SWAP1 SSTORE POP PUSH32 0xEB7B62B344BB3F85B6845F47DDC7878C8FC9946B9C4A4AACBD5274C883E9B66A CALLER PUSH1 0x40 MLOAD PUSH2 0x1EA SWAP2 SWAP1 PUSH2 0x479 JUMP JUMPDEST PUSH1 0x40 MLOAD DUP1 SWAP2 SUB SWAP1 LOG1 JUMP JUMPDEST PUSH1 0x0 DUP2 MLOAD SWAP1 POP SWAP2 SWAP1 POP JUMP JUMPDEST PUSH1 0x0 DUP3 DUP3 MSTORE PUSH1 0x20 DUP3 ADD SWAP1 POP SWAP3 SWAP2 POP POP JUMP JUMPDEST PUSH1 0x0 JUMPDEST DUP4 DUP2 LT ISZERO PUSH2 0x22E JUMPI DUP1 DUP3 ADD MLOAD DUP2 DUP5 ADD MSTORE PUSH1 0x20 DUP2 ADD SWAP1 POP PUSH2 0x213 JUMP JUMPDEST PUSH1 0x0 DUP5 DUP5 ADD MSTORE POP POP POP POP JUMP JUMPDEST PUSH1 0x0 PUSH1 0x1F NOT PUSH1 0x1F DUP4 ADD AND SWAP1 POP SWAP2 SWAP1 POP JUMP JUMPDEST PUSH1 0x0 PUSH2 0x256 DUP3 PUSH2 0x1F4 JUMP JUMPDEST PUSH2 0x260 DUP2 DUP6 PUSH2 0x1FF JUMP JUMPDEST SWAP4 POP PUSH2 0x270 DUP2 DUP6 PUSH1 0x20 DUP7 ADD PUSH2 0x210 JUMP JUMPDEST PUSH2 0x279 DUP2 PUSH2 0x23A JUMP JUMPDEST DUP5 ADD SWAP2 POP POP SWAP3 SWAP2 POP POP JUMP JUMPDEST PUSH1 0x0 PUSH1 0x20 DUP3 ADD SWAP1 POP DUP2 DUP2 SUB PUSH1 0x0 DUP4 ADD MSTORE PUSH2 0x29E DUP2 DUP5 PUSH2 0x24B JUMP JUMPDEST SWAP1 POP SWAP3 SWAP2 POP POP JUMP JUMPDEST PUSH1 0x0 PUSH1 0x40 MLOAD SWAP1 POP SWAP1 JUMP JUMPDEST PUSH1 0x0 DUP1 REVERT JUMPDEST PUSH1 0x0 DUP1 REVERT JUMPDEST PUSH1 0x0 DUP1 REVERT JUMPDEST PUSH1 0x0 DUP1 REVERT JUMPDEST PUSH32 0x4E487B7100000000000000000000000000000000000000000000000000000000 PUSH1 0x0 MSTORE PUSH1 0x41 PUSH1 0x4 MSTORE PUSH1 0x24 PUSH1 0x0 REVERT JUMPDEST PUSH2 0x2FC DUP3 PUSH2 0x23A JUMP JUMPDEST DUP2 ADD DUP2 DUP2 LT PUSH8 0xFFFFFFFFFFFFFFFF DUP3 GT OR ISZERO PUSH2 0x31B JUMPI PUSH2 0x31A PUSH2 0x2C4 JUMP JUMPDEST JUMPDEST DUP1 PUSH1 0x40 MSTORE POP POP POP JUMP JUMPDEST PUSH1 0x0 PUSH2 0x32E PUSH2 0x2A6 JUMP JUMPDEST SWAP1 POP PUSH2 0x33A DUP3 DUP3 PUSH2 0x2F3 JUMP JUMPDEST SWAP2 SWAP1 POP JUMP JUMPDEST PUSH1 0x0 PUSH8 0xFFFFFFFFFFFFFFFF DUP3 GT ISZERO PUSH2 0x35A JUMPI PUSH2 0x359 PUSH2 0x2C4 JUMP JUMPDEST JUMPDEST PUSH2 0x363 DUP3 PUSH2 0x23A JUMP JUMPDEST SWAP1 POP PUSH1 0x20 DUP2 ADD SWAP1 POP SWAP2 SWAP1 POP JUMP JUMPDEST DUP3 DUP2 DUP4 CALLDATACOPY PUSH1 0x0 DUP4 DUP4 ADD MSTORE POP POP POP JUMP JUMPDEST PUSH1 0x0 PUSH2 0x392 PUSH2 0x38D DUP5 PUSH2 0x33F JUMP JUMPDEST PUSH2 0x324 JUMP JUMPDEST SWAP1 POP DUP3 DUP2 MSTORE PUSH1 0x20 DUP2 ADD DUP5 DUP5 DUP5 ADD GT ISZERO PUSH2 0x3AE JUMPI PUSH2 0x3AD PUSH2 0x2BF JUMP JUMPDEST JUMPDEST PUSH2 0x3B9 DUP5 DUP3 DUP6 PUSH2 0x370 JUMP JUMPDEST POP SWAP4 SWAP3 POP POP POP JUMP JUMPDEST PUSH1 0x0 DUP3 PUSH1 0x1F DUP4 ADD SLT PUSH2 0x3D6 JUMPI PUSH2 0x3D5 PUSH2 0x2BA JUMP JUMPDEST JUMPDEST DUP2 CALLDATALOAD PUSH2 0x3E6 DUP5 DUP3 PUSH1 0x20 DUP7 ADD PUSH2 0x37F JUMP JUMPDEST SWAP2 POP POP SWAP3 SWAP2 POP POP JUMP JUMPDEST PUSH1 0x0 PUSH1 0x20 DUP3 DUP5 SUB SLT ISZERO PUSH2 0x405 JUMPI PUSH2 0x404 PUSH2 0x2B0 JUMP JUMPDEST JUMPDEST PUSH1 0x0 DUP3 ADD CALLDATALOAD PUSH8 0xFFFFFFFFFFFFFFFF DUP2 GT ISZERO PUSH2 0x423 JUMPI PUSH2 0x422 PUSH2 0x2B5 JUMP JUMPDEST JUMPDEST PUSH2 0x42F DUP5 DUP3 DUP6 ADD PUSH2 0x3C1 JUMP JUMPDEST SWAP2 POP POP SWAP3 SWAP2 POP POP JUMP JUMPDEST PUSH1 0x0 PUSH20 0xFFFFFFFFFFFFFFFFFFFFFFFFFFFFFFFFFFFFFFFF DUP3 AND SWAP1 POP SWAP2 SWAP1 POP JUMP JUMPDEST PUSH1 0x0 PUSH2 0x463 DUP3 PUSH2 0x438 JUMP JUMPDEST SWAP1 POP SWAP2 SWAP1 POP JUMP JUMPDEST PUSH2 0x473 DUP2 PUSH2 0x458 JUMP JUMPDEST DUP3 MSTORE POP POP JUMP JUMPDEST PUSH1 0x0 PUSH1 0x20 DUP3 ADD SWAP1 POP PUSH2 0x48E PUSH1 0x0 DUP4 ADD DUP5 PUSH2 0x46A JUMP JUMPDEST SWAP3 SWAP2 POP POP JUMP JUMPDEST PUSH32 0x4E487B7100000000000000000000000000000000000000000000000000000000 PUSH1 0x0 MSTORE PUSH1 0x22 PUSH1 0x4 MSTORE PUSH1 0x24 PUSH1 0x0 REVERT JUMPDEST PUSH1 0x0 PUSH1 0x2 DUP3 DIV SWAP1 POP PUSH1 0x1 DUP3 AND DUP1 PUSH2 0x4DB JUMPI PUSH1 0x7F DUP3 AND SWAP2 POP JUMPDEST PUSH1 0x20 DUP3 LT DUP2 SUB PUSH2 0x4EE JUMPI PUSH2 0x4ED PUSH2 0x494 JUMP JUMPDEST JUMPDEST POP SWAP2 SWAP1 POP JUMP JUMPDEST PUSH1 0x0 DUP2 SWAP1 POP DUP2 PUSH1 0x0 MSTORE PUSH1 0x20 PUSH1 0x0 KECCAK256 SWAP1 POP SWAP2 SWAP1 POP JUMP JUMPDEST PUSH1 0x0 PUSH1 0x20 PUSH1 0x1F DUP4 ADD DIV SWAP1 POP SWAP2 SWAP1 POP JUMP JUMPDEST PUSH1 0x0 DUP3 DUP3 SHL SWAP1 POP SWAP3 SWAP2 POP POP JUMP JUMPDEST PUSH1 0x0 PUSH1 0x8 DUP4 MUL PUSH2 0x556 PUSH32 0xFFFFFFFFFFFFFFFFFFFFFFFFFFFFFFFFFFFFFFFFFFFFFFFFFFFFFFFFFFFFFFFF DUP3 PUSH2 0x519 JUMP JUMPDEST PUSH2 0x560 DUP7 DUP4 PUSH2 0x519 JUMP JUMPDEST SWAP6 POP DUP1 NOT DUP5 AND SWAP4 POP DUP1 DUP7 AND DUP5 OR SWAP3 POP POP POP SWAP4 SWAP3 POP POP POP JUMP JUMPDEST PUSH1 0x0 DUP2 SWAP1 POP SWAP2 SWAP1 POP JUMP JUMPDEST PUSH1 0x0 DUP2 SWAP1 POP SWAP2 SWAP1 POP JUMP JUMPDEST PUSH1 0x0 PUSH2 0x5A7 PUSH2 0x5A2 PUSH2 0x59D DUP5 PUSH2 0x578 JUMP JUMPDEST PUSH2 0x582 JUMP JUMPDEST PUSH2 0x578 JUMP JUMPDEST SWAP1 POP SWAP2 SWAP1 POP JUMP JUMPDEST PUSH1 0x0 DUP2 SWAP1 POP SWAP2 SWAP1 POP JUMP JUMPDEST PUSH2 0x5C1 DUP4 PUSH2 0x58C JUMP JUMPDEST PUSH2 0x5D5 PUSH2 0x5CD DUP3 PUSH2 0x5AE JUMP JUMPDEST DUP5 DUP5 SLOAD PUSH2 0x526 JUMP JUMPDEST DUP3 SSTORE POP POP POP POP JUMP JUMPDEST PUSH1 0x0 SWAP1 JUMP JUMPDEST PUSH2 0x5EA PUSH2 0x5DD JUMP JUMPDEST PUSH2 0x5F5 DUP2 DUP5 DUP5 PUSH2 0x5B8 JUMP JUMPDEST POP POP POP JUMP JUMPDEST JUMPDEST DUP2 DUP2 LT ISZERO PUSH2 0x619 JUMPI PUSH2 0x60E PUSH1 0x0 DUP3 PUSH2 0x5E2 JUMP JUMPDEST PUSH1 0x1 DUP2 ADD SWAP1 POP PUSH2 0x5FB JUMP JUMPDEST POP POP JUMP JUMPDEST PUSH1 0x1F DUP3 GT ISZERO PUSH2 0x65E JUMPI PUSH2 0x62F DUP2 PUSH2 0x4F4 JUMP JUMPDEST PUSH2 0x638 DUP5 PUSH2 0x509 JUMP JUMPDEST DUP2 ADD PUSH1 0x20 DUP6 LT ISZERO PUSH2 0x647 JUMPI DUP2 SWAP1 POP JUMPDEST PUSH2 0x65B PUSH2 0x653 DUP6 PUSH2 0x509 JUMP JUMPDEST DUP4 ADD DUP3 PUSH2 0x5FA JUMP JUMPDEST POP POP JUMPDEST POP POP POP JUMP JUMPDEST PUSH1 0x0 DUP3 DUP3 SHR SWAP1 POP SWAP3 SWAP2 POP POP JUMP JUMPDEST PUSH1 0x0 PUSH2 0x681 PUSH1 0x0 NOT DUP5 PUSH1 0x8 MUL PUSH2 0x663 JUMP JUMPDEST NOT DUP1 DUP4 AND SWAP2 POP POP SWAP3 SWAP2 POP POP JUMP JUMPDEST PUSH1 0x0 PUSH2 0x69A DUP4 DUP4 PUSH2 0x670 JUMP JUMPDEST SWAP2 POP DUP3 PUSH1 0x2 MUL DUP3 OR SWAP1 POP SWAP3 SWAP2 POP POP JUMP JUMPDEST PUSH2 0x6B3 DUP3 PUSH2 0x1F4 JUMP JUMPDEST PUSH8 0xFFFFFFFFFFFFFFFF DUP2 GT ISZERO PUSH2 0x6CC JUMPI PUSH2 0x6CB PUSH2 0x2C4 JUMP JUMPDEST JUMPDEST PUSH2 0x6D6 DUP3 SLOAD PUSH2 0x4C3 JUMP JUMPDEST PUSH2 0x6E1 DUP3 DUP3 DUP6 PUSH2 0x61D JUMP JUMPDEST PUSH1 0x0 PUSH1 0x20 SWAP1 POP PUSH1 0x1F DUP4 GT PUSH1 0x1 DUP2 EQ PUSH2 0x714 JUMPI PUSH1 0x0 DUP5 ISZERO PUSH2 0x702 JUMPI DUP3 DUP8 ADD MLOAD SWAP1 POP JUMPDEST PUSH2 0x70C DUP6 DUP3 PUSH2 0x68E JUMP JUMPDEST DUP7 SSTORE POP PUSH2 0x774 JUMP JUMPDEST PUSH1 0x1F NOT DUP5 AND PUSH2 0x722 DUP7 PUSH2 0x4F4 JUMP JUMPDEST PUSH1 0x0 JUMPDEST DUP3 DUP2 LT ISZERO PUSH2 0x74A JUMPI DUP5 DUP10 ADD MLOAD DUP3 SSTORE PUSH1 0x1 DUP3 ADD SWAP2 POP PUSH1 0x20 DUP6 ADD SWAP5 POP PUSH1 0x20 DUP2 ADD SWAP1 POP PUSH2 0x725 JUMP JUMPDEST DUP7 DUP4 LT ISZERO PUSH2 0x767 JUMPI DUP5 DUP10 ADD MLOAD PUSH2 0x763 PUSH1 0x1F DUP10 AND DUP3 PUSH2 0x670 JUMP JUMPDEST DUP4 SSTORE POP JUMPDEST PUSH1 0x1 PUSH1 0x2 DUP9 MUL ADD DUP9 SSTORE POP POP POP JUMPDEST POP POP POP POP POP POP JUMP INVALID LOG2 PUSH5 0x6970667358 0x22 SLT KECCAK256 0xEA SELFBALANCE 0x5F LOG4 0xA7 0xF8 0xD0 PUSH16 0x6D0AA92F972FD39654AA264F4D5E728E 0x22 SDIV MUL GASLIMIT MSTORE8 MULMOD PUSH17 0x4164736F6C634300081200330000000000 "
				},
				"gasEstimates": {
					"creation": {
						"codeDepositCost": "394000",
						"executionCost": "430",
						"totalCost": "394430"
					},
					"external": {
						"claimStar()": "25693",
						"setStarName(string)": "infinite",
						"starName()": "infinite",
						"starOwner()": "2536"
					}
				},
				"methodIdentifiers": {
					"claimStar()": "c5946ae0",
					"setStarName(string)": "9bd78a26",
					"starName()": "88d5896c",
					"starOwner()": "a434c272"
				}
			},
			"storageLayout": {
				"storage": [
					{
						"astId": 3,
						"contract": "contracts/starNotary.sol:StarNotary",
						"label": "starName",
						"offset": 0,
						"slot": "0",
						"type": "t_string_storage"
					},
					{
						"astId": 5,
						"contract": "contracts/starNotary.sol:StarNotary",
						"label": "starOwner",
						"offset": 0,
						"slot": "1",
						"type": "t_address"
					}
				],
				"types": {
					"t_address": {
						"encoding": "inplace",
						"label": "address",
						"numberOfBytes": "20"
					},
					"t_string_storage": {
						"encoding": "bytes",
						"label": "string",
						"numberOfBytes": "32"
					}
				}
			},
			"userdoc": {
				"kind": "user",
				"methods": {},
				"version": 1
			}
		}
	}
}